:1020000000800020312D00002D2D00002D2D00001E
:1020100000000000000000000000000000000000C0
:102020000000000000000000000000002D2D000056
:1020300000000000000000002D2D0000852D000094
:102040002D2D00002D2D00002D2D00002D2D000028
:102050002D2D00002D2D00002D2D0000C538000075
:102060002D2D0000792C00002D2D00002D2D0000BD
:102070002D2D00002D2D0000892C00002D2D00009D
:102080002D2D00002D2D00002D2D00002D2D0000E8
:10209000000000002D2D00002D2D00002D2D000032
:1020A0002D2D00002D2D00002D2D00002D2D0000C8
:1020B0000000000010B5064C2378002B07D1054B1B
:1020C000002B02D0044800E000BF0123237010BDA4
:1020D00040000020000000005C700000044B10B5C0
:1020E000002B03D00349044800E000BF10BDC046E8
:1020F00000000000440000205C7000007047704742
:102100001FB50123054A02930192054A0549009231
:10211000052200F033F905B000BDC0465B24000085
:10212000DF650000AB6500001FB509230293054B76
:102130000A220193044B05490093022300F01EF983
:1021400005B000BD65240000E2650000AB6500003D
:102150001FB505230293054B0F220193044B05493C
:102160000093042300F00AF905B000BD5B240000D1
:10217000DF650000AB65000010B5040000F078FBDF
:102180000A4B002208332360094B2000190A2371EF
:102190006171190C1B0EE3710123A1712372A281DD
:1021A000A27300F079FB200010BDC0460866000055
:1021B000E765000010B5040000F05AFB0A4B00224E
:1021C00008332360094B2000190A23716171190C2F
:1021D0001B0EE3710123A1712372A281A27300F08F
:1021E0005BFB200010BDC04620660000E5650000D6
:1021F00010B5040000F03CFB0A4B002208332360BA
:10220000094B2000190A23716171190C1B0EE3712F
:102210000123A1712372A281A27300F03DFB200073
:1022200010BDC046F0650000A4650000FA2010B59E
:10223000800000F0E5FDE121054C4902200001F09D
:102240001FFB200001F01DFB0028FAD010BDC04686
:102250000007002010B500F031F903681B689847AB
:10226000FA20400000F0CCFD10BD000010B505487C
:10227000FFF782FF0448FFF79DFF0448FFF7B8FF10
:1022800010BDC04670000020840000205C000020CB
:10229000837B0120002901D0184070475B08FBE7D1
:1022A000F8B504000F00294916001D0001F01BF8C5
:1022B0002749200001F017F82649200001F013F803
:1022C0002549002F00D12549200001F00CF82449B0
:1022D000200001F008F8069B0A221968200001F08E
:1022E0006AF82049200000F0FEFF0799200000F066
:1022F000FAFF1D49200000F0F6FF089B0A2219682A
:10230000200001F058F82921200000F0F0FF1749C3
:10231000200000F0E8FF3100200000F0E4FF144945
:10232000200000F0E0FF0A222900200001F043F81D
:102330002E21200000F0DBFF0E49200000F0EEFF10
:102340000D49200000F0CFFFF8BDC04651660000E7
:102350005C6600006F660000386600003F660000A3
:102360007A6600007E6600007B66000081660000E1
:1023700089660000916600009F660000F0B50026A7
:1023800087B00593437B050004911700B3421CD12D
:102390000E9905980D9B984704000600010028003F
:1023A000FFF776FF00280CD00EAB02930C9B084879
:1023B000019305AB0093049A3B0021000068FFF7EE
:1023C0006FFF2100280000F05FFA300007B0F0BD79
:1023D0000000002010B50023884207D0984207D0A3
:1023E0000133002902D004F0BFF80300180010BD2B
:1023F00001235B42FAE710B50023884207D09842D8
:1024000007D00133002902D004F0AEF80300180011
:1024100010BD01235B42FAE70B0010B50100180064
:10242000FFF7E9FF404210BD020000208A4209D0B8
:1024300082420DD00130002904D0137808788342FD
:1024400001D0181A7047002B05D001320131F4E792
:1024500001204042F6E71800F4E7401A41424841A3
:10246000C0B27047401A411E8841C0B27047030095
:102470000800196810B5002904D01B79002B02D17F
:1024800000F031FF10BD00F02AFFFBE7020010B59D
:1024900012790B7900680968002A07D1002B02D154
:1024A000FFF798FF10BDFFF7A6FFFBE7002B02D157
:1024B000FFF7B2FFF6E7FFF7B7FFF3E770B50126C6
:1024C000064D074C2B68334206D1200000F05AFA23
:1024D000044B2E6008332360200070BD980000205C
:1024E0009C00002068690000F7B506005B4BC269DC
:1024F0001C68036A5A499B1A2000019300F0EFFE02
:102500005849200000F0EBFE5749200000F0E7FE9C
:102510000A22B189200000F04EFF544D200029000E
:1025200000F0DDFE5249200000F0D9FE2900200015
:1025300000F0D5FE4F49200000F0D1FEFA210198AD
:10254000890003F0C3FF0F00FA210198890003F00E
:1025500037FF0A220100200000F02DFF2E2120006D
:1025600000F0C5FE632F09D83021200000F0BFFE27
:10257000092F03D83021200000F0B9FE0A223900CB
:10258000200000F018FF2900200000F0A8FE3A49C2
:10259000200000F0A4FEB1890A22200000F00BFF09
:1025A0002900200000F09BFE3449200000F097FE37
:1025B000F1890A22200000F0FEFE2900200000F030
:1025C0008EFE2F49200000F08AFE318A0A22200068
:1025D00000F0F1FE2900200000F081FE29492000D2
:1025E00000F07DFEB18A0A22200000F0E4FE2900FE
:1025F000200000F074FE2449200000F070FE0A2242
:10260000718A200000F0D7FE2900200000F067FE4C
:102610001E49200000F063FE2900200000F05FFE4C
:102620001B49200000F05BFE2900200000F057FE4F
:102630001849200000F053FE1749200000F04FFE1B
:102640001649200000F04BFE1549200000F047FE1F
:102650001449200000F058FEF7BDC04600000020DD
:10266000AB660000E3660000086700000567000035
:10267000186700002167000028670000306700002D
:102680003967000042670000516700005B67000087
:102690006567000070670000856700008A670000BA
:1026A000526800006168000070B5040000F09DF9F8
:1026B000A37A002B04D1200000F0A8F90123A37213
:1026C00000F0D2F80368002B0ED1237A002B0AD138
:1026D00000F060FB2062200000F0B6F92000FFF758
:1026E00003FF0123237270BD63681B68002B02D1B6
:1026F00000F0BAF8606063681B68187B0428F2D8A1
:1027000003F040FE031424436600997BE27A0A43F7
:102710009A736368186803681B68984763681B6846
:102720001A7B002ADFD102321A73DCE7E27A997B46
:102730000A439A73032263681B681A735A73638A85
:1027400001320133638263681B68EDE700F022FB0E
:10275000217E626800290CD0FA239B004B43E1697B
:102760005B18834205D8136803221A7301325A7327
:10277000B9E7106803689B68984763681B681A7B11
:10278000022AB0D110336360ADE7587B01380328CB
:102790001AD803F0F7FD0D110215628A0132628228
:1027A0001A68180052689047636804221B68BBE7E8
:1027B000E2890132E281F3E7228A01322282EFE7E5
:1027C000A28A0132A282EBE7E28A0132E282E7E7E3
:1027D000180000F077F81E4B1E491D68636828003A
:1027E0001B685B7B012B10D100F079FD6368290029
:1027F00018680430FFF73BFE1749280000F084FDFD
:1028000063681A6812691A606DE7022B09D100F03B
:1028100066FD6368290018680430FFF728FE0F4939
:10282000EBE7032B09D100F05AFD63682900186813
:102830000430FFF71CFE0A49DFE700F050FD636833
:10284000290018680430FFF712FE0649D5E7C04694
:10285000000000206D680000C4680000EB68000004
:10286000126900003A69000000487047C00000206B
:10287000044B03600023436003728381837303610D
:102880007047C0467C690000002903D1032303730D
:10289000013B43737047000070B50500084C216888
:1028A000002908D00431281DFFF7F0FD002802DBC5
:1028B00024681034F3E723682B61256070BDC0469F
:1028C000C00000203C2270B5837B0400134225D059
:1028D0001F4A1568427B012A0ED15B071ED51D4990
:1028E000280000F0FCFC2900201DFFF7C0FD1A495C
:1028F000280000F009FD11E0022A0BD11B070DD5BD
:102900001449280000F0EBFC2900201DFFF7AFFD63
:102910001249EDE7032A02D0042A0CD070BDDB0671
:10292000FCD50C49280000F0DAFC2900201DFFF737
:102930009EFD0B49DCE79B06F0D50649280000F018
:10294000CEFC2900201DFFF792FD0649D0E7C046C6
:1029500000000020886900008E690000976900006F
:10296000A0690000AA69000010B504000368DB68D4
:102970009847637B002B03D103332373023B6373BC
:1029800010BD0000084B7E22083303600023436023
:102990000372437283728381C38103824382C38241
:1029A0000A33C27203767047406A000070B5012690
:1029B000054D064C2B68334203D12000FFF7E2FFA0
:1029C0002E60200070BDC046C4000020C80000205A
:1029D00010B5FFF749FF00230068002803D001333A
:1029E0009BB21030F8E7180010BD10B5437A040010
:1029F000002B0AD101334372FFF7EAFFA081FFF7F2
:102A000033FF606000F0C6F9E06110BD70B50500ED
:102A1000FFF7CCFFC37A5B060ED5084B08491C684C
:102A2000200000F05CFCA9890A22200000F0C3FC11
:102A30000449200000F068FC70BDC0460000002082
:102A40001E6A0000356A0000F8B50500FFF7AEFF0A
:102A5000C37A5B0662D5324BEA691C682B6A31493E
:102A600020009E1A00F03BFCFA213000890003F0A0
:102A70002DFD0F00FA213000890003F0A1FC0A228D
:102A80000100200000F097FC2E21200000F02FFC18
:102A9000632F09D83021200000F029FC092F03D82A
:102AA0003021200000F023FC0A223900200000F031
:102AB00082FC1D49200000F031FC1C49200000F080
:102AC0000EFC0A22E989200000F075FC184920005C
:102AD00000F005FC0A22298A200000F06CFC154950
:102AE000200000F0FCFB0A22698A200000F063FC51
:102AF0001149200000F0F3FB0A22A98A200000F00F
:102B00005AFC0E49200000F0EAFBA9890A222000A5
:102B100000F051FC0A49200000F0F6FBF8BDC04669
:102B200000000020B6690000CC690000D6690000F2
:102B3000EB690000F5690000FF6900000A6A000007
:102B4000356A000010B50400FFF74FFFA37A002B91
:102B500004D12000FFF75AFF0123A372FFF784FE80
:102B60000368002B0BD1237A002B07D100F012F958
:102B700020622000FFF768FF0123237210BD636805
:102B80001B68002B02D1FFF76FFE606063681B6853
:102B9000187B0428F2D803F0F5FB031424436600E5
:102BA000997BE27A0A439A736368186803681B6822
:102BB000984763681B681A7B002ADFD102321A73B8
:102BC000DCE7E27A997B0A439A73032263681B6805
:102BD0001A735A73638A01320133638263681B6814
:102BE000EDE700F0D7F8217E626800290CD0FA23C7
:102BF0009B004B43E1695B18834205D813680322AD
:102C00001A7301325A73B9E7106803689B689847D2
:102C100063681B681A7B022AB0D110336360ADE78A
:102C2000587B013803281AD803F0ACFB0D110215AC
:102C3000628A013262821A6818005268904763689B
:102C400004221B68BBE7E2890132E281F3E7228AB2
:102C500001322282EFE7A28A0132A282EBE7E28A06
:102C60000132E282E7E71800FFF72CFE63681A687A
:102C700012691A6082E7000010B5024801F006F8F8
:102C800010BDC046E803002010B5024800F0FEFF6A
:102C900010BDC046EC000020F7B501240326154FF7
:102CA0001549380000F0CEFB1449154800F0CAFB66
:102CB0001449154800F0C6FB1449154800F0C2FB42
:102CC0001449154800F0BEFB144D1549280000F0CA
:102CD000B9FB39000096230001940022114800F04E
:102CE00069FF0096290001941E231F220E4800F060
:102CF00061FFF7BDE406002000080042000C00421E
:102D0000E806002000100042EC06002000140042FB
:102D1000F006002000180042F4060020F80600200B
:102D2000001C0042E8030020EC000020FEE7000049
:102D300070B50F490F4CA14204D100F085F801F0A5
:102D4000A3F8FEE70C4D00238D42F6D0CA18E81810
:102D5000A24205D3094B8242EFD00949002204E088
:102D6000006804331060F1E704C38B42FCD3E4E74E
:102D700000000020400000206070000040000020A3
:102D80004C13002010B500F05DF8002801D100F0D0
:102D90004FF810BD014B18687047C046FC06002074
:102DA000F7B51348012284461249134C8E686368B4
:102DB00005689B0E1340019288686268019F920E1D
:102DC0003A4067463F6893420ED1BD420CD18642DD
:102DD0000AD35B19FA254868AD00861B07486B4388
:102DE0007043000DC018FEBD3D0013000600E3E770
:102DF000FC06002010E000E000ED00E0555500006A
:102E000070B5041E10D0FFF7CBFF050001F035F8B8
:102E1000FFF7C6FF054B401B9842F7D9FA23013C48
:102E20009B00ED18002CF3D170BDC046E7030000F5
:102E300010B5034A13680133136000F0C7FA10BDE0
:102E4000FC060020002070471E2270B54648474906
:102E5000436893431C3A1343436008238C6923431C
:102E60008B61434C434B9C829C8A14439C82DC685C
:102E70001442FCD00124404A14701578254203D036
:102E800055786DB2002DF8DB01249460547864B25B
:102E9000002CFBDB394C5460547864B2002CFBDB13
:102EA0008224E4015480547864B2002CFBDB0224B9
:102EB0009C840E34DD682542FCD0314CDC62102449
:102EC000DD682542FCD09D8C2E4C2C439C84102424
:102ED000DD682542FCD002249D8C80262C439C84F6
:102EE0004024DD683542FCD0DD682542F9D010244D
:102EF000DD682542FCD000249460547864B2002C34
:102F0000FBDB214C5460547864B2002CFBDB1C6A60
:102F10001E4D2C4080251C621C6AAC431C6203239E
:102F200093601B4B536053785BB2002BFBDB002399
:102F3000FF240B72174A4B728B72CB72164B1A60BE
:102F4000164B174A1B6811689A065B01C90E23408D
:102F5000520F12020B431343124A13858023426817
:102F60001343436070BDC046004000410004004070
:102F70000C06000000080040000C004001050100A4
:102F8000B905FF7D040A000000070300FFFCFFFFF6
:102F900003060100006CDC020400002024608000B5
:102FA0002060800000400042FA212D4B10B51868C7
:102FB000890003F005FA2B4B013898424FD82A4973
:102FC0002A4A4860C020136A00061B021B0A0343FA
:102FD000136200238B6007330B608021136A09069C
:102FE0001B021B0A0B431362FC22214B196A0A4382
:102FF0001A62FF22196A12020A431A62A022196A8F
:10300000D2020A431A621B4B1C005A7852B2002AA1
:10301000FBDB194A5A80194B1A00597EC90901294C
:10302000FBD0C821890099800521D970537EDB0926
:10303000012BFBD0C02300205B011361907000F0D6
:1030400023F863785BB2002BFBDB0D4B0D4A6380EA
:10305000D379DB09012BFBD04123537010BDFEE770
:1030600004000020FFFFFF0010E000E000ED00E0A2
:1030700000040040000C00401E40000000400042E0
:1030800021400000004800421F4900B50B004A7E65
:10309000D209012AFBD001380A282FD803F072F98F
:1030A0001B2E2E2E2E2E062E2E2411001A691749A5
:1030B0000A400F211A615A788A43110001220A43FB
:1030C00010E01A6911490A400F211A615A788A439F
:1030D00011000322F3E71A690C490A400F211A6113
:1030E0005A788A435A7000BD1A6908490A400F216C
:1030F0001A615A788A4311000222E0E7F022196926
:1031000012050A43F3E7C04600400042FFFFFFF00C
:10311000182310B508244343134AD0180457013428
:1031200012D001249A5643689C4003290CD8080009
:103130000E49D2015218D318403303F023F902107C
:10314000060B02211970546010BD062119705460DD
:103150009461F9E70621197054605461F4E7022183
:1031600019709460F0E7C0464C6A000000440041CA
:103170001823F0B508245843114A13181C5701347A
:103180001BD0012635005F688356BD400D4ADB0128
:103190009A18906805420BD10C00601E8441D21928
:1031A0004032107834400336A400B04320431070FE
:1031B000044A9B18002901D15D61F0BD9D61FCE7C7
:1031C0004C6A0000004400411822424370B52D4E65
:1031D0000300B218127A52B2140001320ED0481C09
:1031E00000240C280AD803F0CDF8071F1F1F1F1F4B
:1031F0001F1F1F0B0B0B0B0001246442200070BD2E
:10320000092905D100211800FFF782FF0024F5E706
:103210000A2901D10839F6E700240B29EED10A3931
:103220001800FFF775FFE9E7182201205343F21851
:10323000F3565568144ADB016C089B18C9B2284044
:103240001C1900280ED00F203034227809010240CA
:1032500011434122C9B25B192170403319780A43E6
:103260001A70D3E722000F26303214785B19B4436A
:103270002143117041224033197804000A431A7027
:10328000BCE7C0464C6A000000440041F7B50600A8
:103290000D000C008B180193019B671B9C4207D00B
:1032A000336821781B683000984701340028F3D137
:1032B0003800FEBD70B5040008000D0003F05EF993
:1032C0002368020029005B682000984770BD10B594
:1032D0000B1E02D0FFF7EEFF0300180010BD10B563
:1032E000FFF7F5FF10BD10B5FFF7F1FF10BD10B5EA
:1032F00003681B68984710BD10B50249FFF7DAFF55
:1033000010BDC046CC6E000070B50400FFF7DFFFB3
:1033100005002000FFF7F0FF401970BD70B50400F4
:10332000FFF7D5FF05002000FFF7E6FF401970BD4D
:10333000F0B58BB06B461500002205330600DA7736
:103340000800012D00D80A2509AC290003F0BEF8B9
:10335000CAB2130037330700DBB2092902D81300C1
:103360003033DBB2013C2370002FEED1210030005E
:10337000FFF7ADFF0BB0F0BDF8B506000C00151E51
:1033800004D10368C9B21B689847F8BD0A2A0CD15A
:1033900000290BDA2D21FFF7AAFF614207002A005E
:1033A0003000FFF7C5FF3818EFE7D2B22100300038
:1033B000FFF7BEFFE9E710B5FFF7DEFF10BD000025
:1033C000014B18607047C04608000020164A10B52F
:1033D0001368591C26D0013B1360002B22D172B612
:1033E000124B134A0433934213D9124A012110009D
:1033F000147D0C42FCD02021148BFF319B085B0014
:1034000021431183D3610C4B13800123027D1A42A7
:10341000FCD0BFF34F8F094B094ADA60BFF34F8FDF
:10342000C046FDE710BDC046080000200020000097
:10343000030200000040004102A5FFFF00ED00E094
:103440000400FA05016070479446F0B59E1E721E96
:1034500096416246056892072F6836063A43324322
:103460002A60072505AC24780068A401294021437F
:1034700042680024022B00D05C03114321434160C9
:10348000F0BD30B5C0250368AD031C6812052A40A5
:103490002243C0240904A402214011431960036897
:1034A0005A6814435C6030BD0123026811680B4305
:1034B000136003681A68D207FCD4DA69D207F9D41A
:1034C00070470223026811680B4313600268D369D6
:1034D0009B07FCD4704703681A7ED20702D41A7E79
:1034E0009207FCD57047002203685A83704703682F
:1034F000187E4007C00F70470368187EC0097047E8
:10350000802302685B42117E0B4313767047036889
:10351000588B8007C00F704702230268518B0B4302
:10352000538370470368187EC007C00F7047036855
:10353000188DC0B2704703681A7ED207FCD589B2D5
:10354000012019857047012203689A75704701228E
:1035500003681A75704700000368104A934213D03D
:103560000F4A934212D00F4A934211D00E4A93420F
:1035700010D00E4A93420FD001200D4A4042934290
:1035800001D1063040B270470020FBE70120F9E787
:103590000220F7E70320F5E70420F3E700080042E4
:1035A000000C0042001000420014004200180042CB
:1035B000001C0042F8B5FFF7CFFF00282EDBC30048
:1035C0001C481F22C01805230579C35601201A4044
:1035D00090400326C022184952001E40F600885031
:1035E000813AB240C024D243B440002B17DA0F26F0
:1035F0003340083B114E9B089B009B19DE6932400B
:103600001443DC613F231D408023DB011D430C4B31
:1036100008605D805A7852B2002AFBDBF8BD064E86
:103620009B089B009B19C026B6009F593A40144343
:103630009C51E7E7D06E000000E100E000ED00E003
:10364000000C0040F8B504000F0016001D00FFF745
:10365000B1FF2000FFF728FF1C21BB000B407107C2
:103660002268090C0B431360842322689375012F91
:103670001AD11021012E00D008390C4B694318686B
:10368000C00002F09DFE0722216802408B89520390
:10369000DB04DB0C13438B81226803049089DB0C71
:1036A000400B400318439081F8BDC0460400002041
:1036B000F0B595B003AC01920D004222002120002C
:1036C0001F0002F049FF0020412F5CD92F4F042634
:1036D000089701272E49277621812E4902AFA18123
:1036E000FD39FF392430E676CE19F077A0742077C3
:1036F000380006260630C67738000730C5776A1CC2
:10370000A570A5720825D2B204A8C2772248234B1F
:103710000C900DA80570912000016085043D0EA855
:1037200005703120C0190270A27633222380022353
:103730000A20D21913700FAA1070194A11A8A28674
:103740003B22D21913704022E37023716371A3737B
:1037500061746377A377E17702703F200725C01972
:10376000057012A8017080203C31C91908704221EF
:10377000C9190B704133DB191A702100023201980C
:1037800002F0CEFE422015B0F0BDC0462001052457
:10379000090400000102000007058003080B000077
:1037A0000705000008B4024B9C46103808BC60476F
:1037B000B136000013B56B460268D97107335468FF
:1037C00019000122A04716BD10B5002000F0C0FB73
:1037D000041E01D100F051FB200010BD10B50020E7
:1037E00000F0F0FB10BD10B5002000F025FC10BD6E
:1037F00013B56B460021DC1D2200080000F0C6FB5B
:10380000002801D0207816BD01204042FBE713B507
:103810006B46DC1D01222100002000F0A3FB0028E4
:1038200001D0207816BD01204042FBE770B50E00A4
:1038300015001400002C10D0002000F061FB0028BF
:103840000BD022003100002000F0AEFB241A361805
:10385000002C02D000F011FBECE7281B70BD00002B
:103860000023FA2243604361044B920082601A00F5
:1038700030330832026003617047C046006F0000B9
:10388000704710B5002000F03BFB041E01D100F092
:10389000F4FA200010BD07B5081E09D1694600F0F2
:1038A00047FB9623009ADB009A4201D100F078F89A
:1038B00007BD000010B50248FFF7D2FF10BDC0469B
:1038C0000007002010B5002001F0FAFC10BD000038
:1038D00010B5274B274C284A28495A61200001F08F
:1038E000B7FD9B21264AC900200001F017FE2000E9
:1038F00001F017FE01211A20FFF70AFC01211A200E
:10390000FFF736FC01211920FFF702FC01211920E5
:10391000FFF72EFC20231B4A0F20D1690B43D361F4
:10392000012219490B7813430B70184B1978814306
:10393000197006211C782143197015490C7822430F
:103940000A701A7802401A70602219780A431A70B5
:10395000104B114A5A805A78D209FCD1C1220F4922
:1039600092008B581B021B0A8B5001F011FD10BDF9
:1039700000070020640B0020446F000010070020A7
:10398000E5EE000000040040584400413C44004182
:1039900059440041000C00400640000000E100E0F6
:1039A00010B5FA20FFF70CFD10BD000070B588B00F
:1039B00068460200124B70CB70C21B6804AC1360E7
:1039C0000023C258E5181268160AEA70AE70160C89
:1039D000120E6E701A550433102BF2D100230F26ED
:1039E0000848E25C0133150012113540455D825CE8
:1039F0004D800A800431102BF3D1202008B070BD17
:103A0000346F0000536F00000120704710B5036849
:103A1000014A1B6A984710BD130400000300FC33E1
:103A2000D96F9A6F914203D0DB6FC018007D704749
:103A300001204042FBE710B504000069FFF734FDA8
:103A400022000023FC329367D3679E229200A418C1
:103A50006366A36610BDF0200140303948424841FA
:103A60007047F0231B011940802306209B009942D8
:103A70000AD00133FF330130994205D08023023848
:103A80005B00994200D0002070470F2001400020C9
:103A9000012903D00239481E8141481C70470000AB
:103AA000B923F0B5182685B002919B000400C05CD4
:103AB000330008214343324D1700EB185956FFF7E6
:103AC00083FB304B0821E05C33004343EB1859562D
:103AD000FFF77AFB2C4BE25C0393022A09D11133E6
:103AE000E05CFF2805D008214643AE197156FFF768
:103AF0006BFBBA26B600A05DFF2819D00121FFF7A5
:103B000007FB1822A35D21495A43AB56AD18DB01D0
:103B10005818BB21890060501D4901225B18BC2147
:103B20008900635069688A40BD21890062501A602B
:103B30000122029B11002069FFF784FD390020005B
:103B4000FFF78FFF390005002000FFF79EFF3900C7
:103B500006002000FFF77FFF330000902900206956
:103B60000122FFF771FC0B4B2069E25C039BE15CD7
:103B7000FFF787FC2069FFF7A4FC05B0F0BDC04645
:103B80004C6A0000E5020000E70200001844004112
:103B900014440041E6020000AF2210B504005200B8
:103BA000002102F0D9FC23000022FC335A662000D9
:103BB0009A6610BDF7B51D0008AB1B780400009392
:103BC00009AB1B781600019300234360FA239B0086
:103BD0008360114B0F00083303601430FFF7DCFFE4
:103BE00020007D30FF30FFF7D7FFB9236A469B00E6
:103BF0002761E654094B1278E554094B2000E25442
:103C00006A46084B1279E254BA22E93BFF3B920024
:103C1000A3541032A354FEBD646F0000E5020000FF
:103C2000E6020000E70200000300FC33586E9B6EC2
:103C3000C01A01D55F30FF30704710B50400200076
:103C40007D30FF30FFF7F0FF0028F8D12069FFF743
:103C500042FC10BD10B51430FFF7E6FF10BD0300A5
:103C6000FC33596E9A6E914205DB5A6E986E801A3B
:103C70005E30FF307047986E5B6EC01A0138F9E70E
:103C800010B57D30FF30FFF7EAFF10BD70B50400BE
:103C90000069FFF73CFC002805D02069FFF747FCCE
:103CA0002069FFF739FC2069FFF721FC002824D0A8
:103CB00020692500FFF73BFCAF21FC350600A86F0B
:103CC0004900013002F002FCEB6F994203D0AB6F68
:103CD000E3181E75A967BA239B00E35CFF2B0CD089
:103CE00020001430FFF7BBFF092806DCBB23BD22F0
:103CF0009B009200E358A2581A602069FFF712FC5B
:103D000000281DD020007D30FF30FFF78DFF0028F8
:103D100025D09E239B00E618B26E736E9A421BD08C
:103D2000BE22AF21B36EB06EE318520001304900DD
:103D30009D5C02F0CBFBB166E9B22069FFF7FBFBAB
:103D40002069FFF7D9FB002805D02069FFF7D8FBD1
:103D50002069FFF7C8FB70BD01256D42ECE72069C3
:103D6000FFF7F5FBECE70000F8B5040000690E0072
:103D7000FFF7D8FB002843D19E23AF219B00E51815
:103D8000686E49000130AF6E02F0A0FBB94223D14A
:103D9000EFF31083DB0710D41F4B5B68DB05DB0DF3
:103DA000EAD0103B5BB2002B10DA0F221340083B25
:103DB0009B081A4A9B009B181B682069FFF7B2FBFF
:103DC0000028D9D02000FFF761FFD5E79B08C0335A
:103DD000134A9B009B58F0E7AF21686E4900013001
:103DE00002F074FBAB6E994205D0BE226B6E52009E
:103DF000E3189E5469662069FFF7A5FB0120F8BD12
:103E000020007D30FF30FFF70FFF0028B4D13100D4
:103E10002069FFF790FBF1E700ED00E01CED00E00A
:103E200000E100E070B50500FC35EA6FAB6F0400FF
:103E30009A421DD0AF21EB6F4900C318E86F1E7D79
:103E4000013002F043FBE967BA239B00E35CFF2BE0
:103E50000CD020001430FFF702FF0A2806DDBC2337
:103E6000BD229B009200E358A2581A60300070BD3A
:103E700001267642E8E7FEE7704710B500F0F6FC51
:103E8000002000F09FF810BD10B5FFF78DF802F08C
:103E900023FBFFF7F1FF0120FEF7B2FFFFF718FD4C
:103EA000FEF7C4F9FEF7D6F9FFF7E7FF024B002B48
:103EB000F8D000E000BFF5E70000000010B5428B2D
:103EC000838A04009B1A9BB23F2B14D9C17800202F
:103ED00000F03EFC00280ED0628BA38AE1789B1A8A
:103EE0009BB23F2B08D98C239B00E218F13BFF3B90
:103EF000002000F05DFC10BD002000F041FCFAE75E
:103F000010B5040000F038FB002801D1002010BDDE
:103F100000F03AFB0028F9D1AC2001238000444393
:103F20000248001900791840F1E7C0461807002040
:103F300010B50C00AC218900484304490722091838
:103F40000631200002F0ECFA10BDC0461807002030
:103F5000AC239B0043430248C018408B80B270479B
:103F60001807002070B5AC24A40044432000064D7F
:103F7000103092B2401900F010FA06006019FFF7F5
:103F80009DFF300070BDC046180700200300AC2024
:103F90008000584310B5034B103089B2C01800F0B0
:103FA00025FA10BD180700200300AC2080005843FC
:103FB00010B5034B203092B2C01800F03DFA10BD8E
:103FC00018070020F7B5AC24A4004443194D06009F
:103FD0002F197B8D002B01D1002021E0B978002022
:103FE00000F0B6FB0028F7D09C2320009B00E318CC
:103FF0005B192030401940221900019300F0CDF9DF
:10400000041E0ED03000FFF77BFF002809D0B978DE
:104010002300019A002000F0CBFB0028DCD0200018
:10402000FEBDAC239B005E43AD19A978002000F0D3
:10403000A7FBD1E718070020AC239B0043430348AC
:10404000C018438D808CC01A80B2704718070020BA
:10405000AC2273B50F4C92000021200002F07CFAD4
:10406000FF2363710C4B0125E38008232581237313
:104070008024002664002B0000962200074908488F
:1040800000F073F900962B0022000649064800F064
:104090006CF973BD1807002000C2FFFF480700201D
:1040A00028070020480800203807002010B5052206
:1040B0000021054802F050FA044800F0F3F90448E2
:1040C00000F0F0F910BDC0461807002028070020B6
:1040D00038070020F0B54B7985B00700022B03D0DC
:1040E0000025280005B0F0BD8B79022BF8D1CB79E3
:1040F000062BF5D81E4EB378002BF1D18B7809250D
:1041000033700C780C1903E02378ED18ADB2E41885
:104110006378242B1DD19542F6D96378042B14D1F2
:1041200063790A2B11D1237838000393E118114BDE
:104130000193114B009302231A0000F0DDFA0028CE
:10414000CED0039B0E35ED18ADB23000FFF7B6FEB2
:10415000C7E7052BE1D12100380000F0F4FA002870
:10416000BED0A37873702378ED18ADB2E418D4E70D
:10417000180700201A0700201B07002060220B7878
:1041800010B513400024202B12D10A4A4B7908792C
:1041900012781B0203439A420AD14B780134202B38
:1041A00006D1054B002B03D00449002000E000BFDE
:1041B000200010BD18070020000000001E0700208E
:1041C00060220B7870B513400025202B15D1154ABD
:1041D0004B790E7914781B0233439C420DD14B78F6
:1041E000202B03D3212B03D9222B08D0002504E058
:1041F00007230D4A00F030FE0125280070BDCC7861
:104200008B7824021C43147100F00EFE074B01252D
:10421000002BF2D0210062082A4029400020FFF73D
:104220003AFBEAE7180700201E0700209738000035
:10423000F7B52B4D01901F00EB780E0000248B4248
:104240001BD0AB788B4226D02000FEBD8C239B0078
:10425000E9180919234800F0E1F8234B002B0BD093
:104260006B79FF2B08D08C229200A218A95C99428E
:1042700002D1002000E000BF0134BC42E6D11B4B5C
:10428000002B05D06B8B002B02D0002000E000BF7C
:104290002800FFF713FEAB78B34201D00124D3E727
:1042A000134B002B02D0002000E000BF0020FFF7DE
:1042B00089FE0028F2D16B8D002BEFD1002FEDD0BD
:1042C0003F263E40EAD1A978019800F041FA041E49
:1042D000E4D0A97833003200019800F069FAB3E71E
:1042E0001807002028070020000000000000000040
:1042F0000000000070B504000800E18815000A0005
:10430000E3896A4359432368591802F009F9E3899C
:10431000A2885B199BB2934201D39B1A9BB2E381A3
:1043200063895D1BADB2658170BD70B50400150079
:104330008089E288236850436A43181802F0F0F835
:10434000A389A2885B199BB2934201D39B1A9BB2AB
:10435000A38163899A4203D1A3899BB2E38170BD93
:1043600063895D19ADB26581F9E710B5C38000239B
:1043700002AC247843810160838182800472C3810E
:10438000012010BD002310B542899A4203D00122BA
:10439000FFF7B0FF0123180010BDF8B543890400F2
:1043A0009BB20F001600002B1ED04389934201D20E
:1043B0004689B6B2E389A588F318AB4206DC320021
:1043C00039002000FFF796FF3000F8BDE18920009A
:1043D0006D1AADB22A003900FFF78CFFE188721B1D
:1043E000694392B27918ECE71E00EDE710B50400BE
:1043F0001000628900238A420ED9E3895918A388E4
:1044000089B2994201D3C91A89B2E288236851431B
:10441000591802F085F80123180010BD10B5438922
:1044200082889A4202D1037A002B03D00122FFF73F
:104430007CFF0123180010BDF8B505000E00141E06
:1044400014D0027A8388002A12D142899A1A111C48
:1044500092B2A24200D9211C8CB2AA89A2189A4217
:1044600012DC220031002800FFF75FFF2000F8BDBA
:104470009C42F2D9E21AC488544300220E19828168
:104480001C00C2814281E8E7AF893100DF1BBFB267
:104490003A002800FFF749FFE988E21B794392B20E
:1044A0007118E0E7002343818381C38101207047B5
:1044B0000B4A0300002A0BD00A4A1078984205D90B
:1044C0001C20094A43431068C01870471B1ADBB20E
:1044D0000020042BF9D81C305843044BF4E7C046A5
:1044E00000000000CC090020C8090020986F0000DF
:1044F00070B5124C322200210500200002F02CF889
:10450000A01C1022FF2102F027F820001022FF211A
:10451000123002F021F8002400F0CEFC084B1B788A
:104520000433A34200DA70BD2000FFF7C1FF01345D
:10453000436828009847E4B2F0E7C046CD09002060
:10454000CC09002070B505000E00141E05D10378BB
:10455000012B02D1100000F06DFD3100281DFFF786
:104560005DFF0600002C05D12B78012B02D1200025
:1045700000F05AFD300070BD024B18784007C00FA4
:104580007047C046CD090020024B18780007C00FC5
:104590007047C046CD09002070B532220021134873
:1045A00001F0DAFF124C201DFFF77CFF114B124D7A
:1045B0001C60124B002B04D0280000E000BF104B01
:1045C000186000242B780433A34207DA002000F09F
:1045D000E3FC002000F028FD012070BD2000FFF763
:1045E00067FF013403689847E4B2EBE7CD09002088
:1045F0000C000020000A0020CC0900200000000070
:10460000C809002010B5040040780A0002380328C9
:104610001CD801F0B7FE022513210120114B197897
:104620008143197019780018814319701978023084
:104630008143197008201978814306E0094B1978E5
:10464000C9070DD50821187801431970064B2100C0
:104650001868FFF777FF03E0024B1978C907E9D420
:1046600010BDC046CD090020000A0020F0B585B07D
:104670006B46150007000E0001AC0A22981D0021B0
:1046800001F06AFF2900200027706670FFF7BAFF6B
:1046900005B0F0BD30B585B015006B460022DA805C
:1046A000062301AC2070083202A8637001F038FFC5
:1046B00029002000FFF7A6FF05B030BDF0B51500BA
:1046C000062287B000930CAB1B780700019302AB66
:1046D00098180E00002101F03FFF072303AC637020
:1046E0006B461B780199200027702671A5606371C5
:1046F000FFF788FF07B0F0BDF7B506000C001F00FC
:1047000000250192019BAB4201DC012003E06378AC
:10471000052B01D00020FEBDE3789B079B0FBB4219
:10472000F8D12100300000F0ADFC0028F2D0A378D1
:10473000DA09012A05D1099A137023780135E418A2
:10474000E0E7089AF8E710B500F09CFC10BD000007
:104750007F23CA090B4009495B00C9188918033136
:10476000CB7F0020DB0707D4CB7F5B0704D4042377
:10477000CA7F01301343CB777047C046CD09002074
:104780007F23CA090B4009495B00C9188918033106
:10479000CB7F0020DB0707D4CB7F5B0704D5042247
:1047A000CB7F01309343CB777047C046CD090020C3
:1047B00070B57F240C4065000C4CCE096419A41917
:1047C0000334E57F0026ED070ED40125E67F2E4356
:1047D000E67700F0B7FC061E06D10422E37FAB4368
:1047E000E377E37F9343E377300070BDCD0900208A
:1047F0007F23CA090B4004495B00C918891803319B
:10480000C87FC007C00F7047CD09002010B50C004D
:1048100000F0F8FC7F2121404B000749E409C9184A
:10482000022309190331CA7F1343CB770123CA7FBF
:104830001343CB7710BDC046CD09002010B50C0046
:1048400000F0EEFC7F21022221404B000649E409E2
:10485000C91809190331CB7F9343CB77CB7F013A3A
:104860009343CB7710BDC046CD090020F0B589B089
:1048700000F09EFD002800D18EE2BA4B1D682B7817
:10488000012B02D1002000F0D5FB05AC281D210032
:10489000FFF778FD2B7806000190012B02D1002054
:1048A00000F0C2FB002E00D176E2607801380728C4
:1048B000E3D801F07BFD08000F00680246025102B8
:1048C000180020026A022078FFF712FE2279A64B18
:1048D0005A70D2E72078FFF70BFEA44B002BCCD008
:1048E00000E000BFC9E701229F4E00203378257801
:1048F0001343337000F0EAFA237960271A003A4034
:10490000BA421CD0402A10D1994B002B17D099489D
:10491000002801D000F0DAFA06A9280000E000BF64
:104920000190019B002BA8D109E0DB06DB0E012BD7
:1049300000D16DE1002B0CD0022B00D189E105AC38
:104940002078002100F05EFC2078802100F05AFCE5
:1049500093E7202A10D1237A0F2BF0D8F618B078DD
:10496000FFF7A6FD041EEAD0006900F0AFFAE36885
:1049700006A928009847D3E7002AE0D160790928E2
:10498000DDD801F009FD35012D01DCFF2401DCFF3C
:104990000A00CB00DCFF16001E0006A800F09CFAFF
:1049A000A179280000F020FC0223327813433370F1
:1049B00063E7337804AA5B07DB0F0232137001232D
:1049C00021E1A379029333785B072BD4029B002B60
:1049D00028D0581EC0B200F05BFE0028AFD043784C
:1049E000022BACD101272024C27953113B4059013D
:1049F00033789211A3430B43402104003A409201C3
:104A00008B4313433370C37882781B021343C3185C
:104A100009340393039BA34215D8574B002B01D0B5
:104A200000E000BF029B01205A1E93414E49034003
:104A30000A7803309B00824313430B7006A92800B9
:104A400000F0F2F919E7637800260B2B02D12378E6
:104A50002600E4186378042B00D070E7039B1F1B2B
:104A60000023BFB20193454B019A1B780433934254
:104A700033DB0198FFF71CFD3A0083682100280012
:104A80009847002846D0082800D858E7874200D227
:104A900055E7A178344A53189F78FF2F00D04EE78E
:104AA0006F463F799F70002E1ED12F4B21000022B0
:104AB0009C464B78052B09D16F468E787A3333406C
:104AC0005B0063443F791233F6099F550B78D21887
:104AD00092B2C9189042ECD82418284B019A1B783E
:104AE00004339A4296DD2AE7B3788B4200D026E75A
:104AF000377963799F4200D021E700239446F77805
:104B00000133DEB2B742D0D96A46CE181279664474
:104B1000B270F5E7019B0133DBB2A3E7E088C3B2D3
:104B2000000A01380E2800D909E701F035FC0F0012
:104B30003A00400008FF08FF490008FF08FF08FF8F
:104B400008FF08FF08FF08FF08FF290000F09CFD90
:104B50001223020006A9280000F07EF9002800D0E8
:104B60008BE6ECE6000A0020CD09002000000000E2
:104B7000000000000000000000000000CC09002040
:104B8000864B002B00D1DAE600E000BF040004AB46
:104B90009E1C0222A11C300001F0C2FC33882200BE
:104BA000D8E7180000F074FD041EF0D1C7E6218993
:104BB000180000F073FD021E00D1C0E60378C9E7BB
:104BC000774B002B00D1BAE600E000BFF3E7E388A3
:104BD000012B00D0B3E632780F33134333702DE747
:104BE000E388012B00D0AAE6102233789343F5E73F
:104BF0000121337804AA98090840D90802231940F2
:104C000002320143118006A9280000F025F934E69C
:104C1000237A0F2B00D992E6F618B078FFF748FCFC
:104C2000061E00D18BE6006900F050F9F36806A972
:104C300028009847002800D01FE623791F4000D0A5
:104C40007DE663790A2B00D079E604AB9A1C1770D5
:104C5000B5E67F27217A0F40072F00D96FE6C809F4
:104C60000290002A44D16279012A36D0002A09D064
:104C7000032A00D063E6E388002B34D12800FFF735
:104C8000C5FD30E07A00B618029A2800B61803363F
:104C9000F17F04AA8907C90F0232118006A900F02A
:104CA000DBF87B003F4FFF18029BFF18B87CFFF733
:104CB000FFFB061E09D0006900F008F9F36806A999
:104CC00028009847002800D00190602320791840E0
:104CD00000D026E600F0FAF823E6E388002B02D1A4
:104CE0002800FFF7ABFD06A9280000F09DF8D8E7E3
:104CF00000230193D5E77F2001262579294B284001
:104D00004100EA095B189B18DA1CD17FB143D177C7
:104D1000D17F0336B143D177002806D1627920785C
:104D2000A368290000F0E6F8A7E5987CFFF7C0FB30
:104D3000031E31D05E6962792078A3682900B047EC
:104D40009BE5194B002B00D197E5164B1878C00650
:104D5000C00F00E000BF90E5144B002B00D18CE5A4
:104D600000E000BF89E52800FFF7A2FB8369002B64
:104D700001D0207898470135EDB20D4B1B780433F4
:104D8000AB42F0DA79E50025F7E76368002B00D144
:104D900073E5A068984770E509B0F0BD0000000019
:104DA00000000000CD09002000000000000000000D
:104DB000CC0900207F23CA090B4004495B00C918B5
:104DC00089180331C87F8007C00F7047CD090020C4
:104DD00070B5134B0600D9899889421A151C92B2F6
:104DE000402A00D940251A78ADB27F2A0ED98842D0
:104DF00011D00C4C99682A00200001F091FB802111
:104E000022002B00300000F09DF970BD884204D1D3
:104E100000210022F5E78021FBE70021014AF0E7AD
:104E2000040A0020180A002070B50A4D0400082268
:104E300028000E0001F074FB00220021AA60EA6045
:104E400071561300C943C90FC901200000F07AF957
:104E500070BDC046040A0020F7B5164D16000700C5
:104E6000082228000C00019301F05AFB0023AE60D9
:104E7000EB81E279A379120201991A43131C8A4249
:104E800001D96B469B8899B2AB81002A07D00029D3
:104E900001D0301E02D03800FFF79AFFFEBD00217E
:104EA00061561300C943C90FC901380000F04AF91F
:104EB000F4E7C046040A002010B51422002102487D
:104EC00001F04AFB10BDC046040A0020014B1861E6
:104ED0007047C046040A002010B5054C01000822A6
:104EE000200001F01DFB0023A360E36010BDC0465D
:104EF000040A0020F8B5254C1F0023780500DA09C4
:104F0000C9098A420BD00026B74206D1204B013690
:104F1000002B02D0210000F093F83000F8BD7F2B69
:104F200007D80026A068B042F7D03A00194901F02E
:104F3000F7FAA268E389D219DB19A260E2889BB272
:104F4000E3819A4201D03F2F1CD82369002B0BD15B
:104F5000002161560023C943C90FC9011A00280066
:104F600000F0F0F80600D8E7210028009847011E5D
:104F7000EED1280000F046F98021280000F042F927
:104F80000126CAE72800FFF723FFEBE7040A002009
:104F900041500000180A002001221E4B30B519783C
:104FA0000A431A709A78D207FCD59A78D207FCD4B3
:104FB0001F25194A1C8D1268AC43910C29400C43E3
:104FC0001C85198D500B154C284080012140014350
:104FD0001985198D92011248520F014012030A439C
:104FE0001A850322D9780A43DA700C22D9780A4349
:104FF000DA700C4A5A6200221A8106321A709A78C4
:105000009207FCD4998B9A8B0A439A8308221A83BD
:1050100030BDC04600500041246080003FF8FFFFD3
:10502000FF8FFFFF600A00208022014B1A6070474B
:1050300000E100E08022014BDA67704704E100E004
:105040000B785B0607D14B78052B04D180228B7837
:105050001343084A9372084B084A09491A605A6870
:105060001140802292020A435A605A68920B9203BE
:105070005A60704700500041600A0020580A002022
:10508000FF3F00F070B507257F224B798C780879B7
:105090002B401B0222400343E409082B31D0102B84
:1050A00031D0202B31D0402B31D0802B31D08020FB
:1050B000400083422FD0001883422ED01D4E002086
:1050C000B3421DD12B00500000191B4D00012D18BB
:1050D00068681A4E1B07304003436B605301184A3F
:1050E0009B18CA7819789207920F0132002C16D1BA
:1050F000072081430A431A705A7A063802435A72CB
:1051000070BD0023DFE70123DDE70223DBE7032394
:10511000D9E70423D7E70523D5E70623D3E7702093
:10512000120181430A431A700222597A6F380A43E6
:105130005A72E5E7FF030000600A0020FFFFFF8FBF
:1051400000510041F0B57F2723480F407E01C90977
:105150007D0034186D1821482D012A50204D002F54
:1051600013D1002A11D1002B0FD11E4F3A78D2094A
:105170008A420AD080220760476892022F403A4351
:1051800042604268920B920342609B04801900299E
:1051900012D142681B092A401343436043689B0BAA
:1051A0009B03436040232279134323710423E27954
:1051B00013430120E371F0BD42699B0C2A40426118
:1051C0004269920B92031343802243616379134334
:1051D0006371E2790823EBE700510041600A002087
:1051E000FF3F00F0580A0020002310B51A0080216C
:1051F000FFF7A8FF0122024B9A831A8310BDC04615
:10520000005000417F23054A0B405B019B18C909F0
:105210002022012900D010225A717047005100410C
:105220007F23054A0B405B019B18C90922220129F3
:1052300000D011221A71704700510041F0B50024CE
:1052400001251C4B85B01B8C9BB203932B00A34004
:10525000039AE7B21A4227D00222174BE6187601CA
:10526000F379DBB2029313420ED0144B62019B1808
:105270005A698021002392041800920C394300954A
:10528000FFF71CFA0223F371029B2B420CD00B4B4D
:1052900062019B185A6800239204920C0095390011
:1052A0001800FFF70BFAF5710134082CCED105B0C8
:1052B000F0BDC0460050004188020802600A00208C
:1052C00070B52C4CA38B258B1D4004231D4205D0AB
:1052D000A383012203210020FFF7C8F90122154210
:1052E00007D01023A2830421A38300202383FFF788
:1052F000BDF910231D4206D0A3830122A3820521FC
:105300000020FFF7B3F908231D4224D01120C0214B
:10531000A383194BA0825A68184C890522400A437E
:105320005A605A692240114359611321144A10707E
:105330005172144A14491A605A68002011408022A0
:1053400092020A435A605A68920B92035A600122F1
:105350001100FFF78BF90D4C237ADB0606D50122ED
:1053600008490020FFF796F911232372FFF766FF23
:1053700070BDC04600500041600A0020FFFFFF8F53
:1053800000510041580A0020FF3F00F0FF5000414B
:1053900070B5064D2C78002C05D1FFF7FDF80028DC
:1053A00001D001232B70200070BDC046600B00208F
:1053B000014B18787047C046600B002070B50400A0
:1053C00088B01E4E03AD31001222280001F0A8F86B
:1053D000230007CD07C32A6831001A60AA8809266E
:1053E00025009A80183532001231684601F098F88D
:1053F00032006946280001F093F8114B6561E435ED
:10540000EB61802223002000FE335200DA832D302E
:105410000133FF3ADA7700211332FF3001F09CF8B4
:10542000084B04226B62084B2000AB62074BEB6217
:10543000A0235B00E25408B070BDC0462470000099
:1054400009000001090400003F7000004F700000D7
:105450000300F0B5FE3385B001935A8B43690E000B
:105460009C18019B05009B8B9B1A0200FF32029245
:10547000517F32689BB2176830002200B84700287D
:1054800002D1002005B0F0BDA0225200944623189E
:1054900003937768029B039A944230D26278042A7D
:1054A0001DD1E678002E15D1029A0299527F013261
:1054B0004A77002F0ED06246AA5C072A0AD811004C
:1054C000483189004F512272624661463700AA5C1A
:1054D00001326A542278002AD3D0A418DBE7052AC7
:1054E000F8D1A2787F2A06D99A7F511C9977A178A2
:1054F0000A43A270EEE7DA7F511CD977F7E7019BE8
:105500005B8BC018019B80B258836B69FF35987024
:10551000000AD8706A7F01201A71B3E701814281C5
:105520007047012070470000F7B500293BD00329E0
:1055300047D0A0235B00C25C00238A423FD9483198
:1055400089000B58002000931F2301009C46009BFC
:105550005C182378002B00D17DE01A004032D2B2D3
:10556000012A62D9F42B60D85AB2002A2EDB01221C
:105570003A4C3B4D1C19AC4257D93A4C89183A4A1F
:10558000A34261D91E2866DC384C394D1B194400F2
:1055900012199C0A641954809B05364C9B0D1B19EB
:1055A00002309380D3E7FC30426A01202E4B5A80B0
:1055B000C02201302C4B400092001043188018008C
:1055C000FEBD29490231FEF7F1F9F1E71A006546FF
:1055D000AA43C02A12D102222B40661CA4180194AF
:1055E000019CB4421AD035783F272C000136BC43C9
:1055F000802C1AD19B013D402B43F1E70F221D0067
:105600009543E02D02D113400C3AE6E707221D0036
:105610009543F02D09D11340033ADEE7022A06D163
:105620001C00154D803CAC42A2D901318FE7032A02
:1056300003D1124C124D1C19F5E70C4A114C9A1863
:10564000A242F2D8042293E7202804D04400121981
:10565000538001307BE7C0B2AAE7C0460028FFFFB5
:10566000FF070000FFFF0000A80C00200000FFFF64
:1056700000D8FFFF00DCFFFF7F07000000F8FFFFFE
:10568000FFF70000FFFF0F0000487047640B002089
:10569000014B58697047C046640B002010B50A00E2
:1056A00001000248FFF740FF10BDC046640B002018
:1056B000002070470020704770470120404270472B
:1056C000012040427047704700207047704701201A
:1056D0004042704710B50248FFF770FE10BDC0464B
:1056E000640B002010B58C220021024800F034FF2A
:1056F00010BDC046EC0C002010B50020FFF7F2FFF3
:1057000010BD0000F7B50D006B7907001100032BE9
:1057100002D000242000FEBD07242A79544312340D
:105720008C42F6D8184E71780029F2D130002978D1
:1057300088306918016048782128EAD1087809186A
:1057400012480190124800903800FEF7D5FF00285B
:10575000DFD0AB79012B01D1EB79F37000233371EA
:10576000AB78022233703300883319680948073157
:1057700000F0D6FEB1780029CCD04023064A38008C
:10578000FFF716F8C6E7C046EC0C0020ED0C002031
:10579000EE0C0020F20C0020340D0020F7B51F2580
:1057A0000B7807000C001D40012D01D0002024E0E3
:1057B000394E097932789142F8D1602213400DD0E8
:1057C000202BF3D1607801380A28EFD800F0D0FD03
:1057D000214A4DEEEEEEEEEE333B55006378062B9C
:1057E000E4D1E378212B09D188363268002ADDD054
:1057F000137821003800FFF72FFBFEBD222BD5D1F7
:10580000FFF756FF0200F38821003800FFF724FB62
:1058100026E0E078A37800021843E379A2791F4DCF
:105820001B021343010A2A00C0B2FFF743FF2A00FC
:10583000031EBBD0E8E7E379A2791B021343184AA1
:10584000402BB3D8E0E7E078164B7071002B03D003
:1058500000E000BF0028A9D021003800FFF7E4FADB
:105860000120CAE70123104ACEE76B460125DA1D65
:105870003379EB1A13702B00C6E7E078A3780002A7
:1058800018430138431E9841084BC0B23071002BB9
:10589000E2D000E000BFDFE7EC0C0020F40C0020B9
:1058A000340D002000000000F10C0020000000007A
:1058B00010B5104B0A791B7800249A4217D1602248
:1058C0000B781340202B01D0012410E04B780124E9
:1058D000092B0CD1C8788B7800021843CB798A79D0
:1058E0001B021343010A044AC0B2FFF7E5FE200081
:1058F00010BDC046EC0C0020340D002070B5094CE2
:105900000500A27800208A420BD1074E01009BB20D
:105910003200FFF7D1FEA178402332002800FEF7C5
:1059200047FF70BDEC0C0020340D002070B5C38B18
:105930000500002B01D1002070BD41780020FEF74A
:1059400007FF0028F7D02E0028007136FF363100FF
:1059500014304022FEF721FD6978041E08D00300B0
:1059600032000020FEF724FF0028E4D02000E3E707
:10597000FEF706FFFAE70000D82213B50124520013
:105980000021094800F0E8FD230000948022074927
:105990000748FEF7EAFC00942300802205490648E8
:1059A000FEF7E3FC13BDC0469C110020C01100208F
:1059B000A011002040120020B0110020002210B5DC
:1059C000044B05481A60FEF76DFD0448FEF76AFDBA
:1059D00010BDC0469C110020A0110020B011002075
:1059E000F0B585B0029003924B79012B03D00024CF
:1059F000200005B0F0BD8B79012BF8D1CB79002BBD
:105A0000F5D10D78ACB24D196B78242B07D1039BDF
:105A10009C42ECD82B78E418A4B2ED18F4E7042BE0
:105A2000E5D16B79012BE2D1AB79032BDFD1EB7997
:105A3000002BDCD11D4F7B78002B02D000231B7084
:105A4000FFDEBB780193002BF8D1AB783B702E784A
:105A5000A419A4B2AE192B79019A934208D8B97847
:105A60004023134A0298FEF7A3FEC1E7BB7010E083
:105A7000039B9C42F3D87378052B12D13100029816
:105A8000FEF761FE0028B2D0B378DA09012AEDD121
:105A90007B703378E418F618019BA4B20133DBB2B3
:105AA00001933378E418A4B2F618D4E79C110020CF
:105AB000CC1200200120704700207047F8B51D4D22
:105AC0001C00AB7806008B420AD06B7800278B4213
:105AD00019D12800FFF72AFF002816D0012712E06D
:105AE000154FA2B239001548FEF7A6FC144B002B47
:105AF00002D0002000E000BF3A00A9784023300027
:105B0000FEF756FE07003800F8BDEB8B002BE5D101
:105B1000002CE3D03F221440E0D169783000FEF73A
:105B200017FE071EDAD06978230022003000FEF746
:105B30003FFEE8E79C110020CC120020A0110020BD
:105B400000000000154B70B50500154C002B15D05A
:105B5000607B00E000BF002810D1A3680122A3628F
:105B600023002C331A700F4BA38723003E33187089
:105B70002F3421782800FEF749FE70BDA26BA36880
:105B80009B1A80229200934200D913002F349BB2BB
:105B90002178054A2800FEF70BFEEEE70000000022
:105BA000780F002007270000780D0020F0B52B4C5F
:105BB00087B0E18A070049BA89B200293BD0A568BD
:105BC000280000F0FDFB83B20600002B33D021003B
:105BD0000422113105A800F0A3FC059BB1B21BBA49
:105BE0000393A36B1800029300F070FC039B0A0060
:105BF000C118029B1A4EED1A8023607B9B009D42C8
:105C000000D91D0000953300FFF757FD021E14DA7E
:105C1000A26BA36838009B1AA362230001222C33D5
:105C20001A70104B0022A38723003E331A702E34C3
:105C30002178FEF7EBFD07B0F0BD2E342178002867
:105C400005D1009003003800FEF738FDF3E783B27A
:105C500032003800FEF7ACFDEDE7C046780F0020BB
:105C6000780D00200520000010B5402200210248D8
:105C700000F072FC10BDC046780F002010B5402225
:105C80000021024800F068FC10BDC046780F0020DB
:105C900073B54B790500082B01D0002076BD8B79B8
:105CA000062BFAD1CB79502BF7D1162AF5D90D4C0A
:105CB0008A7823002D331A700B782600C918230028
:105CC0002E33019302232F3600961A00FEF714FD9F
:105CD0000028E2D031781F2322002800FEF768FD5B
:105CE0001720DBE7780F002060220B7873B5134094
:105CF00005000C000020202B08D14B78FE2B06D08D
:105D0000FF2B03D12800FFF78FF8012076BD6B46EB
:105D1000DE1D01233370094B002B02D000E000BFD1
:105D2000307030780028F1D0013830700123320013
:105D300021002800FFF790F8E7E7C04600000000C8
:105D400001207047F0B50B788DB0050014001A2BB8
:105D500000D199E013D8032B00D1A7E0122B00D17A
:105D60006DE0002B08D1FFF7AFFC002819D1614B83
:105D70003C331B78002B17D00120404212E0232B2C
:105D80003BD0252B17D01B2BF6D15B4B002B08D01B
:105D900009798B07CA07DB0FD20F090900E000BFA2
:105DA000E3E700200DB0F0BD524B544A9A87002221
:105DB0003E331A70E0E76B469E1D320002A9FFF7E2
:105DC00085FC029B002B02D03288002A09D1494B66
:105DD0001A003C321278002ACED1484999873E33C6
:105DE000E7E712BA013B1BBA049203A9082220007C
:105DF000039300F095FB0820D4E703AE0C220021AA
:105E0000300000F0A9FB6B469F1D3A0002A9280054
:105E1000FFF75CFC029A002AD9D03B88002BD6D031
:105E2000082112BAF170049202225BBA32727381B5
:105E30000A323100200000F073FB0C20B2E703AE01
:105E400008220021300000F087FB80235B42737042
:105E500008228233202105A8B370F37000F07CFB88
:105E60001022202107A800F077FB254B07AA0B93EF
:105E700005A90BAB2800FFF726FC242231002000E7
:105E800000F04EFB24208DE71E4B0120002B02D09A
:105E9000280000E000BF032300222370023B58408B
:105EA000C001A0706270E27004207BE703AD122293
:105EB0000021280000F050FB0E4EF020330032008D
:105EC00037003C331B783D323E3711783A782870E2
:105ED000E1380340AB700A232973EB716A73290020
:105EE0001222200000F01CFB00231220B3873B701D
:105EF00058E7C046780F00200000000002040000B0
:105F00002020202000000000F0B51E00AF4B89B01B
:105F10001B780500AE4C08000393012B00D19BE0D9
:105F2000002B17D0032B00D10CE1A94B30331B7889
:105F3000022B14D1A64C280023002E331978FEF72B
:105F400039FF002800D10FE100222F3421781300FF
:105F50000092F3E023002F331978814201D0012011
:105F600002E0002A02D0002009B0F0BD1F2EFAD1B5
:105F7000984B20689842F6D1974B94482362636807
:105F8000A262636201230370A263A368E27B63637E
:105F9000282A03D12800FFF709FEC6E72A2A03D1E1
:105FA0002800FFF7CFFDC0E78C4E002B03D0227BEB
:105FB0009BB27F2A3DD9270080230F37607B9B004F
:105FC00032003900FFF7BEFE002825DA23003C33FB
:105FD0001B78002B17D000236363230001222C338E
:105FE0001A702300921830331A7023003C331B7848
:105FF000002B26D0A368002B9CD02E3421782800BB
:10600000FEF704FC91E7636B607B9BB232003900C2
:10601000FFF75DFB0028DEDB230000222C336063EA
:106020001A70904213D0A36898429CD82E342178DD
:1060300083B232002800FEF7BBFB002800D074E7D3
:1060400091E7674AA28722003E321370D2E702220C
:106050005F4B30331A7068E7237B7F2B18D8637B44
:106060000493E37B2A2B25D02100636B0F319BB275
:106070005A4A0498FFF72BFB23002C33002816DA2A
:106080006A46127B1A70564BA38700233E34237056
:106090004F4B9A6BB6185A6B9E639642D7D2DB7BF6
:1060A000282B00D176E72A2B00D03EE778E70022A4
:1060B0001A70EDE7E18AA06849BA89B200F080F968
:1060C000210007000422113107A800F029FA079BDC
:1060D000B9B21BBAA06B059300F0F8F9059B3F4FCE
:1060E0000A000096C1183B000498FFF7E9FA00285F
:1060F00011DAA26BA3689B1A6A46A3622300127B83
:106100002C331A700223314A1370354BA3870023B6
:106110003E34237009E78642BADD361A002807DDCF
:10612000A36BC1191B1832003800A36300F001FAF9
:10613000274B32002F331978002300932800FEF7F5
:10614000BDFA0CE723002E331B788B4200D006E704
:106150000D2E00D003E700231C4A137023002F33B9
:10616000197822001F2365E7230026002F331978B2
:1061700028000F36FEF71EFE002800D0E4E6E37B81
:10618000282B09D02A2B1AD0164B002B0AD0607B63
:10619000310000E000BF05E0134B002B02D0607B14
:1061A00000E000BF2300032230331A7022002E3497
:1061B000203221780D232800FEF7FAFAD4E60B4BA3
:1061C000002BEFD0607B00E000BFEBE7A80F0020C2
:1061D000780F00205553424355534253780D002009
:1061E000052000000000000000000000000000008A
:1061F00010B5040081780020FEF7FAFA00280BD1D0
:10620000E28923899B1A9BB23F2B05D92200A178F2
:10621000A4324023FEF7CCFA10BD70B504004178DB
:106220000020FEF7E5FA05000020854210D1260087
:106230002000E436402231001430FEF7AEF80300AF
:106240000120002B04D0617832002800FEF7B0FA5C
:1062500070BD0000922213B50024520000210948AD
:1062600000F07AF900940123402207490748FEF71D
:106270007CF800940123402205490648FEF775F892
:1062800013BDC046B80F0020DC0F0020BC0F00205B
:106290001C100020CC0F0020002210B5044B054834
:1062A0001A60FEF7FFF80448FEF7FCF810BDC04680
:1062B000B80F0020BC0F0020CC0F0020F7B54B79A1
:1062C00007000D00FF2B02D000242000FEBD072395
:1062D0000C795C4309349442F6D80E4E7378002B47
:1062E000F2D1B378002BEFD10B4B297801930B4BF4
:1062F00069180093022338001A00FEF7FDF9002800
:10630000E2D0AB78B1783370054A40233800FEF70D
:106310004FFADAE7B80F0020B90F0020BA0F0020BB
:106320005C10002010B50E4CA2788A4207D063782A
:1063300000208B4212D12000FFF76FFF0DE09AB2D0
:1063400008490948FEF778F8084B002B02D00020D6
:1063500000E000BF2000FFF74BFF012010BDC0464A
:10636000B80F00205C100020BC0F002000000000CF
:1063700002B4714649084900095649008E4402BCDE
:106380007047C04602B4714649084900095C49009B
:106390008E4402BC7047C04603B4714649084000B1
:1063A0004900095E49008E4403BC704703B471463E
:1063B000490840004900095A49008E4403BC70470F
:1063C000002243088B4274D303098B425FD3030A34
:1063D0008B4244D3030B8B4228D3030C8B420DD347
:1063E000FF22090212BA030C8B4202D312120902D5
:1063F00065D0030B8B4219D300E0090AC30B8B4213
:1064000001D3CB03C01A5241830B8B4201D38B03C0
:10641000C01A5241430B8B4201D34B03C01A524165
:10642000030B8B4201D30B03C01A5241C30A8B42A8
:1064300001D3CB02C01A5241830A8B4201D38B0293
:10644000C01A5241430A8B4201D34B02C01A524137
:10645000030A8B4201D30B02C01A5241CDD2C309A9
:106460008B4201D3CB01C01A524183098B4201D325
:106470008B01C01A524143098B4201D34B01C01A10
:10648000524103098B4201D30B01C01A5241C30888
:106490008B4201D3CB00C01A524183088B4201D3F7
:1064A0008B00C01A524143088B4201D34B00C01AE3
:1064B0005241411A00D20146524110467047FFE74F
:1064C00001B5002000F006F802BDC0460029F7D053
:1064D00076E770477047C04670B500260C4D0D4CEE
:1064E000641BA410A64209D1002600F04FF80A4D03
:1064F0000A4C641BA410A64205D170BDB300EB5832
:1065000098470136EEE7B300EB5898470136F2E7BB
:106510002000002020000020200000203400002067
:10652000002310B59A4200D110BDCC5CC454013395
:10653000F8E710B5884202D98B18984203D300239C
:1065400007E08B5C8354013AFBD210BDCC5CC45491
:1065500001339A42FAD1F8E703001218934200D1AE
:10656000704719700133F9E702780B78002A03D0DD
:10657000013001319A42F7D0D01A70470023C25C33
:106580000133002AFBD1581E70470000F8B5C04601
:10659000F8BC08BC9E467047F8B5C046F8BC08BCBD
:1065A0009E467047437573746F6D002F686F6D65FD
:1065B0002F7562756E74752F446F63756D656E749B
:1065C000732F637573746F6D5F6C6962726172793A
:1065D0002F746573742F746573742E696E6F003D2C
:1065E0003D00213D00696E636F7272656374000047
:1065F0000000000000000000FD200000FF2000005F
:106600006929000051210000000000000000000086
:10661000FD200000FF20000069290000012100008A
:106620000000000000000000FD200000FF2000002E
:106630006929000029210000706173736564006698
:1066400061696C656400747275650066616C736580
:10665000003C6661696C7572653E0A003C6D65734D
:10666000736167653E3C215B43444154415B00419B
:106670007373657274696F6E20003A2028002920B8
:10668000002C2066696C6520002C206C696E6520EA
:10669000005D5D3E3C2F6D6573736167653E003C38
:1066A0002F6661696C7572653E0A003C3F786D6CBF
:1066B0002076657273696F6E3D22312E302220651F
:1066C0006E636F64696E673D227574662D38222093
:1066D0007374616E64616C6F6E653D226E6F223FF4
:1066E0003E0A003C746573742D72756E2069643DBA
:1066F0002222206E616D653D22222066756C6C6ED3
:10670000616D653D22222000746573746361736559
:10671000636F756E743D2200726573756C743D22F3
:106720000074696D653D2200746F74616C3D2200D8
:106730007061737365643D22006661696C65643DD8
:106740002200696E636F6E636C75736976653D22B6
:1067500000736B69707065643D22006173736572CC
:1067600074733D220072756E2D646174653D220064
:1067700073746172742D74696D653D2231313A33E1
:10678000343A323700223E200A003C746573742D7F
:10679000737569746520617373657274733D223219
:1067A00022206661696C65643D2232222066756C28
:1067B0006C6E616D653D22222069643D223130336B
:1067C000362220696E636F6E636C75736976653D02
:1067D000223122206E616D653D226D6F636B2D61EC
:1067E0007373656D626C792E646C6C2220706173BA
:1067F0007365643D2231322220726573756C743D7D
:10680000224661696C65642220736B6970706564EF
:106810003D223322207465737463617365636F7501
:106820006E743D223235222074696D653D22302E12
:106830003135342220746F74616C3D22313822204E
:10684000747970653D22417373656D626C79223E87
:106850000A003C2F746573742D73756974653E0A64
:10686000003C2F746573742D72756E3E003C746528
:1068700073742D6361736520617373657274733D06
:106880002230222066756C6C6E616D653D22556EFE
:1068900069742E54657374732E417373656D626CE5
:1068A0006965732E41556E69742E4661696C696E17
:1068B0006754657374222069643D2222206E616DE5
:1068C000653D22002220726573756C743D22506113
:1068D00073736564222074696D653D22223E3C2FEE
:1068E000746573742D636173653E00222072657355
:1068F000756C743D224661696C6564222074696D13
:10690000653D22223E3C2F746573742D636173656F
:106910003E002220726573756C743D22536B697062
:10692000706564222074696D653D22223E3C2F749F
:106930006573742D636173653E0022207265737503
:106940006C743D22496E636F6E636C757369766516
:10695000222074696D653D22223E3C2F746573745C
:106960002D636173653E0000000000000000000020
:10697000A92600000000000000000000FD2000002B
:10698000FF200000773E00005465737420002070E3
:1069900061737365642E00206661696C65642E0006
:1069A00020736B69707065642E002074696D656476
:1069B000206F75742E005465737452756E6E657217
:1069C000206475726174696F6E3A2000207365638C
:1069D0006F6E64732E005465737452756E6E6572BB
:1069E0002053756D6D6172793A2000207061737368
:1069F00065642C2000206661696C65642C20002091
:106A0000736B69707065642C20002074696D656417
:106A1000206F75742C206F7574206F66200054658C
:106A2000737452756E6E65722073746172746564EE
:106A3000206F6E200020746573742873292E000067
:106A40000000000000000000452B000000000000D6
:106A50000B000000020000001C000000FF0001010C
:106A600001010B00000000000A000000020000000D
:106A70001C000000FF00000100010A0000000000EF
:106A80000E0000000800000004000000FF000000ED
:106A900000000E00000000000900000004000000DB
:106AA0001C000000FF0001000100090000000000C0
:106AB00008000000040000001C000000FF000000AF
:106AC00000001000000000000F00000004000000A3
:106AD0001C000000FF00010301030F000000000084
:106AE00014000000050000002C000000FF00020060
:106AF0000200040000000000150000000800000073
:106B000004000000FF00FFFFFFFF05000000000081
:106B100006000000040000001C0000000600000148
:106B20000001060000000000070000000400000053
:106B30001C00000007000101010107000000000027
:106B400012000000040000001C000000FF00000311
:106B5000000302000000000010000000040000001C
:106B60001C000000FF000002000200000000000006
:106B700013000000050000002C000000FF000300CF
:106B800003000300000000001100000004000000EA
:106B90001C000000FF0001020102010000000000D3
:106BA0000200000001000000020000000000FFFFE2
:106BB000FFFF0200010000000800000001000000CB
:106BC000180000000200000400040800010000009A
:106BD000090000000100000018000000030001048B
:106BE0000104090000000000040000000100000092
:106BF0001800000004000000000004000000000075
:106C00000500000001000000180000000500010060
:106C1000010005000100000002000000010000006A
:106C2000000000000A00FFFFFFFF0200000000005C
:106C3000160000000200000004000000FF00FFFF3B
:106C4000FFFF060000000000170000000200000027
:106C500004000000FF00FFFFFFFF0700000000002E
:106C60000C0000000300000004000000FF00FFFF14
:106C7000FFFF0C00010000000A00000003000000FC
:106C800004000000FF00FFFFFFFF0A0001000000FA
:106C90000B0000000300000004000000FF00FFFFE5
:106CA000FFFF0B0001000000030000000B000000CC
:106CB00004000000FF00FFFFFFFFFF0000000000D6
:106CC0001B0000000B00000004000000FF00FFFF9D
:106CD000FFFFFF00000000001C0000000600000095
:106CE00000000000FF00FFFFFFFFFF0000000000AA
:106CF000180000000600000000000000FF00FFFF79
:106D0000FFFFFF0000000000190000000600000067
:106D100000000000FF00FFFFFFFFFF000100000078
:106D2000160000000300000000000000FF00FFFF4D
:106D3000FFFFFF000100000017000000030000003B
:106D400000000000FF00FFFFFFFFFF000000000049
:106D5000160000000200000000000000FF00FFFF1E
:106D6000FFFFFF000000000017000000020000000D
:106D700000000000FF00FFFFFFFFFF000000000019
:106D8000130000000200000000000000FF00FFFFF1
:106D9000FFFFFF00000000001000000002000000E4
:106DA00000000000FF00FFFFFFFFFF0000000000E9
:106DB000120000000200000000000000FF00FFFFC2
:106DC000FFFFFF00000000001100000002000000B3
:106DD00000000000FF00FFFFFFFFFF0000000000B9
:106DE0000D000000040000000C000000FF00010086
:106DF000FFFF0D000000000015000000050000006E
:106E00000C000000FF000300FFFFFF000000000077
:106E100006000000040000000C000000FF0000015C
:106E2000FFFFFF000000000007000000040000005A
:106E30000C000000FF000101FFFFFF000000000048
:106E4000030000000100000002000000FF00FFFF3F
:106E5000FFFFFF0000000000020000000100000032
:106E6000020000001400FFFFFFFF0200000000000E
:106E70000600000001000000020000000600000102
:106E800000010600000000000700000001000000F3
:106E900002000000070001010101070000000000DE
:106EA0001E0000000400000006000000FF00FFFFBD
:106EB00000010A00000000001F00000004000000A4
:106EC00006000000FF00FFFF01010B000D0A00009B
:106ED0000008004214090000000C0042150A0000DE
:106EE00000100042160B000000140042170C0000B6
:106EF00000180042180D0000001C0042190E00008E
:106F00000000000000000000B53700002D38000030
:106F1000E7370000DD370000C93700000F380000F8
:106F2000F1370000B1360000F0FFFFFF0000000065
:106F3000A53700000CA0800040A0800044A0800085
:106F400048A0800054696E79555342205365726998
:106F5000616C003031323334353637383941424391
:106F6000444546000000000000000000693D0000AC
:106F70008D320000813C00003B3C0000553C00008D
:106F8000253E00001D3A00000D3A0000A13A000025
:106F9000373A0000093A000051400000AD400000BF
:106FA000D5400000C14100007D4100003142000099
:106FB00000000000695C00007D5C0000915C000046
:106FC000E95C0000415D0000095F00000000000076
:106FD000F9560000E5560000055700009D570000D7
:106FE000B1580000FD580000000000007959000071
:106FF000BD590000E1590000B95A0000B55A00001F
:10700000BD5A0000000000005562000099620000B7
:10701000BD620000000000000000000025630000C9
:107020000000000012010002EF0201400000000019
:1070300000010102030109020000000100A0324C1E
:107040006F77506F7765724C6162204C4C43004DF6
:107050006F7465696E6F204D300000000000000005
:107060000007002040420F00FFFFFFFF010000006B
:10707000DC10002010000C000000000000000000E8
:10708000DD2000006D220000992C0000B5380000C2
:10709000D5560000B52000000000000000000000F0
:0400000300002D319B
:00000001FF
